:020000040800F2
:10000000000002203D5C0008E9090008EB09000837
:10001000ED090008EF090008F109000800000000E0
:10002000000000000000000000000000F3090008CC
:10003000F509000800000000F7090008F9090008A8
:100040008D5C00088D5C00088D5C00088D5C0008EC
:100050008D5C00088D5C00088D5C00088D5C0008DC
:100060008D5C00088D5C00088D5C00088D5C0008CC
:100070008D5C00088D5C00088D5C00088D5C0008BC
:100080008D5C00088D5C00088D5C00088D5C0008AC
:100090008D5C00088D5C00088D5C00088D5C00089C
:1000A0008D5C00088D5C00088D5C00088D5C00088C
:1000B0008D5C00088D5C00088D5C00088D5C00087C
:1000C0008D5C00088D5C00088D5C00088D5C00086C
:1000D0008D5C00088D5C00088D5C00088D5C00085C
:1000E0008D5C00088D5C00088D5C00088D5C00084C
:1000F0008D5C00088D5C00088D5C00088D5C00083C
:100100008D5C00088D5C00088D5C00088D5C00082B
:100110008D5C00088D5C00088D5C00088D5C00081B
:100120008D5C00088D5C00088D5C00088D5C00080B
:100130008D5C00088D5C00088D5C00088D5C0008FB
:100140008D5C00088D5C00088D5C0008010A0008C9
:100150008D5C00088D5C00088D5C00088D5C0008DB
:100160008D5C00088D5C00088D5C00088D5C0008CB
:100170008D5C00088D5C00088D5C000800000000AC
:080180008D5C00088D5C000895
:1001880010B5054C237833B9044B13B10448AFF3C9
:1001980000800123237010BD7C00002000000000B7
:1001A800285F000808B5034B1BB103490348AFF3A8
:1001B800008008BD0000000080000020285F0008C3
:1001C80053B94AB9002908BF00281CBF4FF0FF31B6
:1001D8004FF0FF3000F088B9ADF1080C6DE904CE9E
:1001E80000F006F8DDF804E0DDE9022304B070470A
:1001F8002DE9F047089D0F4604468C46002B48D150
:100208008A42164661D9B2FA82F34BB1C3F1200291
:1002180001FA03FC20FA02F29E4042EA0C0C9C40D0
:100228004FEA164EB7B2BCFBFEF1220C0EFB11CC06
:1002380042EA0C4201FB07F0904209D9B21801F1D9
:10024800FF3C80F0EE80904240F2EB80023932446D
:10025800121AA4B2B2FBFEF00EFB102244EA0244CA
:1002680000FB07F7A74209D9341900F1FF3280F0E3
:10027800DA80A74240F2D7803444023840EA01408D
:10028800E41B00211DB1DC400023C5E90043BDE8A3
:10029800F0878B4206D90DB1C5E900010021084657
:1002A800BDE8F087B3FA83F1002948D1BB4202D3F5
:1002B800824200F20781841A67EB03020120944608
:1002C800002DE4D0C5E9004CE1E7002A00F0928057
:1002D800B2FA82F3002B40F0A8808A1A4FEA164E31
:1002E8001FFA86FC0121200CB2FBFEF70EFB172239
:1002F80040EA02420CFB07F0904207D9B21807F116
:10030800FF3802D2904200F2E2804746121AA4B2A5
:10031800B2FBFEF00EFB102244EA02440CFB00FC88
:10032800A44507D9341900F1FF3202D2A44500F2DE
:10033800CB801046A4EB0C0440EA0740A2E7C1F1C9
:1003480020068B4022FA06FC4CEA030C07FA01F45B
:1003580020FA06F3F7404FEA1C49234300FA01F854
:100368001FFA8CFEB7FBF9F01C0C09FB107744EA66
:10037800074400FB0EF7A74202FA01F20AD91CEB68
:10038800040400F1FF3A80F09B80A74240F2988075
:1003980002386444E41B9FB2B4FBF9F309FB13442D
:1003A80047EA044403FB0EFEA64509D91CEB0404E6
:1003B80003F1FF3780F08280A6457FD9023B644471
:1003C80043EA0040A4EB0E04A0FB02E7BC427346DC
:1003D800B94663D360D05DB1B8EB030264EB09049E
:1003E80004FA06F622FA01F31E43CC40C5E900647C
:1003F80000214CE76208480842EAC1710B0C43EA45
:1004080000438AB242EA0342B3FBF6F1E407B4467A
:100418003746B6461F23B0FBF6F0D21B41EA00412F
:1004280061E7614614E7104628E7C3F1200120FA86
:1004380001F29E4027FA01F19F403A434FEA164ED7
:100448001FFA86FCB1FBFEF70EFB1710110C41EAF0
:10045800004107FB0CF8884504FA03F43AD97118EF
:1004680007F1FF3001D288451FD8A1EB0801B1FB85
:10047800FEF808FB0CF70EFB181192B242EA014293
:10048800BA422FD2B21808F1FF31C6D2BA42C4D24A
:10049800A8F102013244C0E7F0459CD2BEEB02034A
:1004A80067EB0C070138B94695E7A6EB0808414405
:1004B800B81EB1FBFEF808FB0CF7DCE73B467FE70C
:1004C800504667E70846FBE63444023832E7023F05
:1004D80032441BE7A1EB08013846B1FBFEF808FBE4
:1004E8000CF7C8E7414698E7704700BF72B6FEE7C9
:1004F80010B594B008AC30220021204605F082FCEB
:100508000023039304930593069307930193214AC9
:10051800116C41F080511164126C02F0805201920A
:10052800019A02931C4B1A6842F480421A601B68B5
:1005380003F480430293029B012308934FF4803312
:10054800099302230E934FF480020F92082210920F
:100558004FF4A8721192129307231393204602F0C6
:100568005DF990B90F2303930223049300230593A5
:100578004FF4A05306934FF480530793052103A823
:1005880002F0B6FB18B914B010BDFFF7AFFFFFF7C4
:10059800ADFF00BF003802400070004008B502F00F
:1005A800FBFEFFF7A5FF00F027F800F0F3F800F0D6
:1005B80047F900F0C5F900F091FB04F0E9FD05F0FA
:1005C8003FF90B4A136B43F008031363A2F530524B
:1005D800136843F08073136000F0A0FB054A536969
:1005E80083F4805353614FF4FA7002F001FFF3E78C
:1005F80000380240000C02402DE9F04F8DB007ADE5
:1006080000240794089409940A940B9401945B4B72
:100618001A6B42F010021A631A6B02F01002019270
:10062800019A02941A6B42F004021A631A6B02F0E0
:1006380004020292029A03941A6B42F080021A632F
:100648001A6B02F080020392039A04941A6B42F028
:1006580001021A631A6B02F001020492049A0594CB
:100668001A6B42F002021A631A6B02F00202059238
:10067800059A06941A6B42F008021A631B6B03F082
:1006880008030693069BDFF80081224608214046AE
:1006980002F0DCFDDFF8F4B001221146584602F002
:1006A800D5FDDFF8EC9022464FF61001484602F0DF
:1006B800CDFD082707970126089609940A9429462C
:1006C800404602F0CDFC0796089609940A942946FC
:1006D800584602F0C5FC07970227089709940A9420
:1006E8004FF0050ACDF82CA02946584602F0B8FC70
:1006F80007964FF4901BCDF820B00994294620485E
:1007080002F0AEFCA0230793089709940A94CDF849
:100718002CA029461A4802F0A3FC04230793089446
:1007280009942946174802F09BFC4FF4806307930D
:10073800089709940A94CDF82CA02946114802F08C
:100748008FFC4FF610030793089609940A942946DC
:10075800484602F085FC202307930894099429460B
:10076800484602F07DFC0797CDF820B00994294649
:10077800404602F075FC0DB0BDE8F08F003802402D
:10078800000002400004024000100240000802403D
:10079800000C024008B50B480B4B03600B4B436041
:1007A80000238360C3604FF4804202614361836128
:1007B800C361036202F030FE00B908BDFFF796FE80
:1007C800FBE700BF9800002000540040A08601000D
:1007D80030B589B0002303930493059306930793D8
:1007E8000268144B9A4201D009B030BD002501952A
:1007F800114C236B43F002032363236B03F00203C2
:100808000193019BC02303931223049301230593AF
:100818000423079303A9094802F022FC0295236CDC
:1008280043F400132364236C03F400130293029B24
:10083800DAE700BF005400400038024000040240DC
:1008480008B50B480B4B03604FF40072426000235D
:100858008360C3600261084A42618361C3610362C5
:1008680002F0B8FE00B908BDFFF740FEFBE700BF85
:10087800EC000020003C004000770100F0B58DB08E
:1008880000230793089309930A930B930393049304
:10089800059306930268264B9A4201D00DB0F0BD2D
:1008A80001230393C02304930223059303A802F0B2
:1008B800F5FA002838D1002400941E4B1A6C42F433
:1008C80000421A641A6C02F400420092009A0194E1
:1008D8001A6B42F001021A631A6B02F001020192CC
:1008E800019A02941A6B42F004021A631B6B03F01C
:1008F80004030293029B1023079302270897099485
:100908000A9406260B9607AD29460B4802F0A8FB69
:100918004FF4A4530793089709940A940B96294611
:10092800064802F09DFBB9E7FFF7E0FDC3E700BF0B
:10093800003C00400038024000000240000802402D
:1009480008B50A480A4B03604FF4E13343600023BB
:100958008360C36003610C2242618361C36103F059
:10096800BDF900B908BDFFF7C1FDFBE73401002060
:100978000044004000B589B0002303930493059315
:10098800069307930268144B9A4201D009B000BD40
:100998000021019103F5FA331A6C42F400321A640B
:1009A8001A6C02F400320192019A02911A6B42F019
:1009B80001021A631B6B03F001030293029B0C23D1
:1009C800039302230493032306930723079303A99E
:1009D800024802F045FBD9E700440040000002400D
:1009E800FEE7FEE7FEE7FEE7FEE770477047704761
:1009F80008B502F0EBFC08BD08B5024801F096F80E
:100A080008BD00BF7C01002000B583B00021009123
:100A18000C4B5A6C42F480425A645A6C02F480427D
:100A28000092009A01911A6C42F080521A641B6C71
:100A380003F080530193019B072002F04DFC03B0A3
:100A480000BD00BF00380240F0B589B00023039311
:100A580004930593069307930368B3F1A04F01D05D
:100A680009B0F0BD03AA002501951B4C236B43F088
:100A780001032363236B03F001030193019B4FF4EC
:100A8800007303931746154E1146304602F0E8FAF4
:100A98004FF4E053039302230493059506950A2324
:100AA80007933946304602F0DBFA636B43F0800364
:100AB80063630295636C43F480436364636C03F47B
:100AC80080430293029B2A462946432002F016FCE3
:100AD800432002F023FCC3E7003802400000024034
:100AE80008B5D0F8DC0303F073FC08BD08B5D0F8EE
:100AF800DC0303F081FC08BD08B5D0F8DC0303F083
:100B080085FC08BD704708B5D0F8DC0303F069FC24
:100B180008BD08B5D0F8DC0303F067FC08BD000089
:100B280090F8CC33012B01D00020704710B5044653
:100B38000F48C0F8DC43C4F8D0034FF0A04303606B
:100B4800082343710123C371002383710222427277
:100B5800837200F041F940B9054801F0CEF801462A
:100B6800204603F032FC002010BDFFF7BFFCF3E77E
:100B78007C01002008B5D0F8D00301F0C3F80128A3
:100B880004D0022804D020B1012002E0012000E0B6
:100B9800022008BD08B5D0F8D00301F0A8F808BDB8
:100BA8000020704708B5D0F8D00301F099F808BDC7
:100BB80008B590F8CC33012B04D0C82002F018FCFB
:100BC800002008BD084600F067F8F6E7D0F8D033F3
:100BD800C1EB011003EB8000C07D38B1C1EB0111FE
:100BE80003EB810383F83C2000207047C1EB01111F
:100BF80003EB810383F83D20F6E708B502F0F8FB24
:100C080008BD022805D8DFE800F00504020001202D
:100C180070470220704708B5D0F8D00301F034F8C7
:100C2800FFF7EFFF08BD08B5D0F8D00301F041F891
:100C3800FFF7E7FF08BD08B5D0F8D00301F04BF87F
:100C4800FFF7DFFF08BD10B584B0D0F8D003BDF8BA
:100C5800204002949DF81C4001949DF8184000948F
:100C680001F061F8FFF7CDFF04B010BD10B584B0F6
:100C7800D0F8D0039DF824400394BDF82040029496
:100C8800079C01949DF81840009400F0ECF8FFF7D9
:100C9800B8FF04B010BD000008B5024600B101223B
:100CA8000121024802F0D2FA08BD00BF0008024044
:100CB80004290CD0052902D0022904D07047064B1C
:100CC80003221A707047044B02221A707047024BB5
:100CD80001221A70704700BF5C05002008B5012288
:100CE8000B490C4803F0C1F948B90B49094803F00E
:100CF800DBF938B9074803F01CFA30B908BDFFF72B
:100D0800F5FBF2E7FFF7F2FBF4E7FFF7EFFBF5E798
:100D1800B90C0008600500200C00002008B5024846
:100D280003F011FA08BD00BF60050020F8B5066899
:100D3800346A04F00F07C4F34343C4F30A14022BC4
:100D480000D0F8BD0546002CFBD0C7EB071300EB1D
:100D58008303D96A0029F4D0C7EB071300EB830398
:100D68009A6B22445B6B9A4207D9C7EB071700EBD3
:100D78008705042385F84C30E3E72246304601F026
:100D880017F9C7EB071305EB8303DA6A2244DA6223
:100D98009A6B22449A6306EB4716D6F810251B8DEA
:100DA800A342CED10B4B1340002BCAD0D6F8003546
:100DB80023F0804343F00043C6F80035C7EB071320
:100DC80005EB830393F83C2082F0010283F83C2072
:100DD800B7E700BF0000F81F002842D030B583B045
:100DE8000446056890F8D533BBB1032384F8D5339E
:100DF800B5F1A04F16D0206801F075F8237C8DF866
:100E08000030231D0ECB206801F01EF868B10223C4
:100E180084F8D533012003B030BD80F8D433FFF710
:100E280013FEE2E70023A371E5E70121206801F042
:100E3800F3F820B1022384F8D5330120EBE7237CB3
:100E48008DF80030231D0ECB206801F017F918B972
:100E5800012384F8D533DEE7022384F8D533012053
:100E6800D9E70120704738B59DF81040BDF81850F3
:100E7800C1EB011C00EB8C0C8CF817208CF8263089
:100E880094B9C1EB011C00EB8C0C4FF0030E8CF8ED
:100E98002AE09DF81CE08CF819E0032B00F2B180E1
:100EA800DFE803F00BA84C7AC1EB011C00EB8C0CBB
:100EB8004FF0020E8CF82AE0EFE7012C40F0A180F9
:100EC800F2B935B9C1EB011300EB8303012283F8B2
:100ED8003D20C1EB011300EB830393F83D303BB990
:100EE800C1EB011300EB8303002283F82A2088E07A
:100EF800C1EB011300EB8303022283F82A2080E070
:100F0800C1EB011300EB83039B7E012B79D1C1EB6D
:100F1800011300EB830393F83C303BB9C1EB011399
:100F280000EB8303002283F82A206AE0C1EB011357
:100F380000EB8303022283F82A2062E0AAB9C1EBFE
:100F4800011300EB830393F83D3033B9C1EB011370
:100F580000EB830383F82A2053E0C1EB011300EB75
:100F68008303022283F82A204BE0C1EB011300EB34
:100F7800830393F83C303BB9C1EB011300EB8303C7
:100F8800002283F82A203CE0C1EB011300EB830325
:100F9800022283F82A2034E0AAB9C1EB011300EB3E
:100FA800830393F83D3033B9C1EB011300EB83039E
:100FB80083F82A2025E0C1EB011300EB830302220A
:100FC80083F82A201DE0C1EB011300EB830393F89B
:100FD8003C303BB9C1EB011300EB8303002283F8DB
:100FE8002A200EE0C1EB011300EB8303022283F8F1
:100FF8002A2006E0C1EB011300EB8303002283F8EB
:101008002A20C1EB011300EB8303059ADA625D63C2
:10101800002283F84C209A63597583F84D20C1EB60
:10102800011189001031014482790431006801F00E
:1010380047FA38BD30B583B004460568D5F8403462
:101048000193D5F840340093009B23F02E030093BE
:10105800019B13F0020F07D0019B13F0010F25D15C
:10106800009B43F002030093019B13F0080F10D07C
:10107800009B43F008030093019B13F0040F2DD04D
:10108800637A022B15D0E379012B22D02046FFF793
:101098003AFD019B13F0200F03D0009B43F020037F
:1010A8000093009BC5F8403403B030BDFFF71EFD28
:1010B800D6E7019B03F4C023B3F5802F04D00121A8
:1010C800206801F05BF8E1E70221206801F056F89A
:1010D800DCE74EF66022C5F80424D7E72046FFF780
:1010E80018FDD6E7F8B505460C460668304600F008
:1010F80086FF10F0040F21D006EB44130422C3F836
:101108000825C4EB041305EB8303072283F84D205D
:101118002146286801F043F92146286800F06FFF4E
:1011280010F4007F6CD02146286801F038F906EBEE
:1011380044164FF40073C6F80835F8BD21462868F0
:1011480000F05DFF10F4807F11D006EB44134FF4DC
:101158008072C3F80825C4EB041305EB8303082247
:1011680083F84D202146286801F019F9D4E7214673
:10117800286800F044FF10F0080F10D006EB441365
:101188000822C3F80825C4EB041305EB83030622E1
:1011980083F84D202146286801F001F9BCE7214673
:1011A800286800F02CFF10F4806F11D006EB441370
:1011B8004FF48062C3F80825C4EB041305EB8303DE
:1011C800092283F84D202146286801F0E8F8A3E7B2
:1011D8002146286800F013FF10F0800F9CD006EB22
:1011E80044138022C3F80825C4EB041305EB8303DA
:1011F800072283F84D202146286801F0D0F88BE7B4
:101208002146286800F0FBFE10F0010F7CD006EBA9
:10121800441606F5A0672023BB60C4EB041305EB56
:101228008303DB7E012B1DD0AB794BB1C4EB0413D8
:1012380005EB83031A6B3969C1F31201521A9A63D9
:10124800C4EB041305EB8303012283F84D2000212E
:101258005964BA6093F82630032B14D8DFE803F0FA
:101268000D250D25C4EB041305EB83030022DA7664
:101278007B6823F480337B60D6E72146286801F039
:101288008EF81023BB60AB79012B20D0C4EB04137C
:1012980005EB830393F83C30C4EB041405EB84049A
:1012A80083F0010384F83C3047E7D6F8003543F073
:1012B8000053C6F80035C4EB041305EB8303012281
:1012C80083F84C2021462846FFF71CFCDBE7C4EBDB
:1012D800041205EB8202936B128D1344013BB3FB9E
:1012E800F2F313F0010F3FF428AFC4EB041305EB3E
:1012F800830393F83C30C4EB041405EB840483F0B7
:10130800010384F83C3018E72146286800F077FE8E
:1013180010F0200F1ED006EB44162023C6F808351F
:10132800C4EB041305EB83039B7E012B7FF405AF0D
:10133800C4EB041305EB83030122DA76C4EB041330
:1013480005EB8303032283F84D202146286801F02A
:1013580026F8F2E62146286800F051FE10F0020F48
:1013680000F0238106EB441606F5A0620223936081
:10137800C4EB041305EB830393F84D30013B082BB2
:101388001ED801A151F823F0B51300084311000835
:101398000F150008671500086F140008DF13000810
:1013A800F513000897150008F5130008C4EB04139B
:1013B80005EB8303022283F84D20012283F84C2099
:1013C800C4EB041305EB830393F84C20214628460D
:1013D800FFF798FBB1E6C4EB041305EB8303022285
:1013E80083F84D20052283F84C20E9E7C4EB041369
:1013F80005EB8303022183F84D10596C01315964C0
:1014080002291BD9C4EB041305EB8303002159649B
:101418009B7E012B07D0C4EB041305EB8303042246
:1014280083F84C20CCE7C4EB041305EB8303D9768F
:101438001977536823F480335360ECE7C4EB041343
:1014480005EB8303022283F84C2093F826300BB176
:101458009342B5D1D6F8003523F0804343F00043DA
:10146800C6F80035ACE7C4EB041305EB830302218F
:1014780083F84D10DB7E012BA2D1C4EB041305EBDE
:10148800830393F82630032B17D03C2303FB045324
:10149800022283F84C20C4EB041305EB830393F872
:1014A80026300BB1022B8BD1D6F8003523F08043C0
:1014B80043F00043C6F8003582E73C2101FB0451A4
:1014C8008B6C01338B64022B16D90B46002199646F
:1014D800D9765B6C022B04D83C2303FB045301210F
:1014E8001977536823F4803353603C2303FB045378
:1014F800042283F84C20CEE73C2303FB045302224A
:1015080083F84C20C7E7C4EB041305EB83030221DF
:1015180083F84D10DB7E012B7FF452AFC4EB04132C
:1015280005EB830383F84C10516841F48031516016
:10153800D16841F04001D160D16821F02001D1602B
:1015480093F8263013B1022B7FF43AAFD6F8003562
:1015580023F0804343F00043C6F8003530E7C4EB7E
:10156800041305EB8303022283F84D2083F84C20F3
:1015780093F8263013B193427FF422AFD6F80035A2
:1015880023F0804343F00043C6F8003518E7C4EB66
:10159800041305EB8303022283F84D205A6C0132B1
:1015A8005A64042283F84C200AE72146286800F090
:1015B80026FD10F0400F18D006EB44134022C3F864
:1015C8000825C4EB041305EB8303052283F84D209B
:1015D8009B7E2BB9C4EB041305EB830300225A64EA
:1015E8002146286800F0DBFEA7E52146286800F0C0
:1015F80006FD10F0100F3FF4A0ADC4EB041305EB8B
:10160800830393F82630032B28D00BB1022B18D173
:10161800C4EB041305EB830300225A64AB7933B19E
:10162800C4EB041305EB8303DB7E012B09D13C23B8
:1016380003FB0453042283F84D202146286800F058
:10164800AEFEC4EB041305EB8303DB7E012B12D043
:1016580006EB44131022C3F808256EE53C2303FB70
:10166800045300225A64042283F84D202146286836
:1016780000F095FEE5E7C4EB041305EB83050023B2
:10168800EB7606EB4413D3F8042522F48032C3F832
:101698000425D3F80C2542F02002C3F80C25D7E71F
:1016A80070B505460C460668304600F0A8FC10F0F8
:1016B800040F10D006EB44160423C6F80835C4EB13
:1016C800041305EB8303072283F84D20214628687D
:1016D80000F065FE70BD2146286800F090FC10F00F
:1016E800200F4AD006EB44162023C6F80835C4EB71
:1016F800041305EB83035B7E012B2DD0C4EB04138D
:1017080005EB83039B7E012BE4D1C4EB041305EBAB
:101718008303DB7E002BDDD1C4EB041305EB8303CD
:1017280093F82630012B05D0C4EB041305EB830393
:101738000122DA762601C4EB041305EB83030322A6
:1017480083F84D202146286800F029FE361B05EB5A
:10175800860600237364BDE7C4EB041305EB83031B
:1017680000225A76022283F84C20032283F84D2067
:101778002146286800F013FEC0E72146286800F0DB
:101788003EFC10F4007F0AD006EB44164FF40073B9
:10179800C6F808352146286800F001FE9AE7214678
:1017A800286800F02CFC10F0010F3BD0C4EB0413A8
:1017B80005EB830300225A642146286800F01FFCC9
:1017C80010F0400F0AD0C4EB041305EB8303012289
:1017D8005A7606EB44134022C3F80825C4EB0413D9
:1017E80005EB8303DB7E6BB1C4EB041305EB8303CA
:1017F8000022DA7606EB4413D3F8042522F480326B
:10180800C3F8042506EB44160122C6F80825C4EBE4
:10181800041305EB830383F84D202146286800F064
:10182800BEFD57E72146286800F0E9FB10F0400F9D
:101838001ED0C4EB041305EB8303052283F84D2067
:101848009B7E2BB9C4EB041305EB830301225A7664
:10185800C4EB041305EB830300225A64214628686D
:1018680000F09DFD06EB44164023C6F8083531E725
:101878002146286800F0C3FB10F0080F10D006EBD3
:1018880044130822C3F80825C4EB041305EB8303AB
:10189800062283F84D202146286800F080FD19E7CC
:1018A8002146286800F0ABFB10F0100F20D0C4EBE5
:1018B800041305EB830300225A64042283F84D20A5
:1018C8005B7E5BB9C4EB041305EB83031B7E2BB96A
:1018D800C4EB041305EB830301225A7621462868DA
:1018E80000F05DFD06EB44131022C3F80825F1E66D
:1018F8002146286800F083FB10F0800F38D0AB79C0
:10190800F3B1C4EB041205EB8202536C0133536448
:10191800022B20D83C2303FB0453022283F84C20DB
:1019280006EB4412D2F8003523F0804343F000431D
:10193800C2F8003506EB44138022C3F80825C9E62F
:101948003C2303FB0453072283F84D2021462868D3
:1019580000F025FDEEE73C2303FB045300225A6404
:10196800042283F84C2021462846FFF7CBF8E1E70C
:101978002146286800F043FB10F4806F10D03C2308
:1019880003FB0453092283F84D202146286800F000
:1019980006FD06EB44134FF48062C3F8082599E668
:1019A8002146286800F02BFB10F0020F3FF492AE9E
:1019B80006EB441606F5A062022393603C2303FB62
:1019C800045393F84D30013B082B3FF683AE01A139
:1019D80051F823F0011A0008DD1600086F1A0008F4
:1019E8008D1A0008B71A0008DB1A0008EF1A000859
:1019F800DD160008EF1A00083C2303FB04530222FB
:101A080083F84D20012283F84C2093F82630023BBE
:101A1800DBB2934253D8A97941B93C2303FB045361
:101A280093F83D2082F0010283F83D20012946D138
:101A38003C2303FB04535B6B002B40D03C2202FB8E
:101A48000452128D1344013BB3FBF2F313F0010F60
:101A580035D03C2303FB045393F83D2082F0010268
:101A680083F83D202BE03C2303FB0453022283F838
:101A78004D20DB7E012B22D13C2303FB045383F84A
:101A88004C201CE03C2303FB0453022183F84D1037
:101A980083F84C10DB7E012B11D13C2303FB04534C
:101AA8000021D976536823F48033536007E03C2340
:101AB80003FB0453022283F84D2083F84C203C2377
:101AC80003FB045393F84C2021462846FFF71AF8E5
:101AD80000E63C2303FB0453022283F84D20052231
:101AE80083F84C20EBE73C2303FB0453022283F8E2
:101AF8004D205A6C01325A64022A08D93C2303FB50
:101B0800045300225A64042283F84C20D7E73C236C
:101B180003FB0453022283F84C20D6F8003523F047
:101B2800804343F00043C6F80035C8E7F8B50446DB
:101B38000568284600F06CFA012800D0F8BD206836
:101B480000F059FA0028F9D0206800F054FA10F48F
:101B5800001F03D023684FF400125A61206800F078
:101B68004AFA10F4801F03D023684FF480125A6198
:101B7800206800F040FA10F0806F03D023684FF01F
:101B880080625A61206800F036FA10F0020F02D025
:101B9800236802225A61206800F02DFA10F0005FD5
:101BA80008D023684FF000525A61D5F8403413F03A
:101BB800010F25D0206800F01EFA10F0807F32D186
:101BC800206800F018FA10F0080F30D1206800F0F3
:101BD80012FA10F0007F31D1206800F00CFA10F0F2
:101BE800100FABD02268936923F01003936120464D
:101BF800FFF79CF82268936943F0100393619DE70F
:101C08001021284600F075F9284600F097F9637A04
:101C1800022B03D02046FEF76FFFCBE70121206897
:101C280000F0ACFAF6E72046FFF704FAC8E72046CA
:101C3800FEF756FF236808225A61C7E7206800F0BC
:101C4800A9FB0746002604E0F1B22046FFF728FD6D
:101C580001366379B34212D906F00F0327FA03F36A
:101C680013F0010FF4D005EB4613D3F8003513F445
:101C7800004FE9D0F1B22046FFF734FAE8E72368CD
:101C88004FF000725A61A7E790F8D433012B0ED0B9
:101C980010B50446012180F8D413006800F0AEFAAC
:101CA800206800F01AF9002084F8D40310BD02203F
:101CB800704790F8D433012B0BD010B5044601239C
:101CC80080F8D433006800F05FFD002084F8D40366
:101CD80010BD0220704708B5006800F070FA08BD12
:101CE800C1EB011100EB810090F84C007047C1EB8B
:101CF800011100EB8100806B704708B5006800F0A7
:101D0800ABFA08BD08B5006800F09BFA08BDC1EB46
:101D1800011200EB820200209076D07682F825002E
:101D280082F8240070472DE9F04F85B01F469DF8D2
:101D380038A09DF83C90BDF840B090F8D433012B02
:101D480054D005460C461646D846012380F8D433AD
:101D5800C1EB011300EB830300225A761F755975F6
:101D680083F8269006F07F029A75FFF7D0FF16F0E9
:101D7800800F29D1C4EB041305EB83030022DA7525
:101D8800286800F05EFAB9F1010F24D0C4EB0413FF
:101D980005EB830383F818A01FFA88F3C4EB041239
:101DA80005EB820213850293CDF80490CDF800A0CC
:101DB8003B4632462146286800F054FA002385F84D
:101DC800D43305B0BDE8F08FC4EB041305EB8303EF
:101DD8000122DA75D4E7BAF1010FD7D10028D5D19D
:101DE800BBF1BC0FD2D94FF0BC08CFE70220E8E71F
:101DF80082B000230193019B01330193019BB3F14E
:101E0800706F1CD80369002BF5DA0A23019302E0EE
:101E1800019B013B0193019B002BF9D1036943F01E
:101E280001030361019B01330193019BB3F1706FBF
:101E380008D8036913F0010FF4D1002000E0032053
:101E480002B070470320FBE784B010B5044603A82E
:101E580080E80E009DF81130012B21D1A36B23F4EB
:101E68008033A363E36823F4840323F04003E3602F
:101E7800E36823F44013E3609DF81830012B0AD07F
:101E88002046FFF7B5FF9DF80E30012B1CD0BDE8AA
:101E9800104004B07047E36843F48013E360EFE751
:101EA800E36843F04003E3602046FFF7A1FF9DF895
:101EB800153023B9A36B43F48033A363E3E7A36B23
:101EC80023F48033A363DEE7A36843F00603A3602B
:101ED800A36843F02003A360D9E7836843F00103B4
:101EE800836000207047836823F00103836000202B
:101EF800704782B000230193019B01330193019B3A
:101F0800B3F1706F15D80369002BF5DA002301933C
:101F1800890141F020010161019B01330193019B7B
:101F2800B3F1706F08D8036913F0200FF4D10020C3
:101F380000E0032002B070470320FBE782B00023D3
:101F48000193019B01330193019BB3F1706F13D887
:101F58000369002BF5DA0023019310230361019B29
:101F680001330193019BB3F1706F08D8036913F033
:101F7800100FF4D1002000E0032002B070470320C6
:101F8800FBE710B59DF8084084B903334FEA930E78
:101F98004FF0000C08E000EB023303F5805351F8D2
:101FA800044B1C600CF1010CF445F4D3002010BD67
:101FB80010B5844608464FEA920E02F00302002349
:101FC80005E00CF58051096840F8041B013373459E
:101FD800F7D37AB10CF5805CDCF800400021CBB275
:101FE800DB0024FA03F300F8013B0131013A92B215
:101FF800002AF4D110BD426980691040704700EB97
:10200800411000F5A063D0F80805DB681840704758
:10201800406900F00100704738B50546C36823F0F1
:10202800C043C360012913D019BBC36843F0804380
:10203800C36000240A2001F0DBF90A342846FFF7C0
:10204800E7FF08B1C72CF5D9C82C14D0002038BD3B
:10205800C36843F00053C36000240A2001F0C8F9A4
:102068000A342846FFF7D4FF0128EDD0C72CF4D94D
:10207800EAE70120EBE70120E9E7000084B038B582
:10208800044605A880E80E000023C4F8003EA36BB0
:1020980043F40013A363A36B23F40023A363A36B8C
:1020A80023F48023A363E36813F0400F11D19DF854
:1020B8001730012B06D0D4F8003423F00403C4F8F9
:1020C80000340CE0D4F8003443F00403C4F80034BE
:1020D80005E0D4F8003423F00403C4F800341021D8
:1020E8002046FFF706FF054600B101252046FFF709
:1020F80025FF00B10125002209E004EB42134FF04F
:10210800FF31C3F808150021C3F80C1501329DF8FA
:1021180015309342F1D80023A3614FF0FF33636178
:10212800124B9C4217D08023636203F5C003A3625D
:102138000F4BC4F800319DF816301BB9A36943F062
:102148001003A361A2690B4B1343A3612846BDE8A2
:10215800384004B070474FF40073636203F1807332
:10216800A362054BC4F80031E5E700BF0000044056
:10217800E0004000080020A30003E00000F5806CA8
:10218800D0F8003423F00303C0F80034D0F800344A
:1021980001F003021343C0F80034012907D00229D3
:1021A8000BD141F27073CCF80430002070474BF625
:1021B8008033CCF80430002070470120704730B5D8
:1021C80083B0044600250195D0F840340193019B63
:1021D80023F02E030193019B43F48073C0F840342D
:1021E800642001F005F9019B23F48073C4F840349E
:1021F8000A2001F0FDF8284603B030BD82B0002364
:102208000193D0F840340193019B23F02E030193EE
:10221800019B13F4805F01D101290CD0019B13F4B9
:10222800805F05D021B9019B23F48053C0F8403466
:10223800002002B07047019B43F48053C0F840343B
:10224800ECE782B000230193D0F840340193019861
:10225800C0F3414002B0704700F58060806880B2EA
:10226800704700002DE9F84391461C469DF824501C
:1022780000EB411606F5A0634FF0FF329A60032D7C
:102288007AD8DFE805F0026B025D40F29D42DA6021
:1022980019F0800F48D13E4A90424BD000270022C7
:1022A8005A60DA6842F00202DA60D0F8183401F0B5
:1022B8000F0101228A401343C0F81834836943F0A0
:1022C8000073836119F0800F58D14FF00008FFF7B1
:1022D800B8FF9DF82030022B53D00022A30503F04D
:1022E800FE534FEAC92909F4F04943EA0903A9044E
:1022F80001F440210B43BDF82810C1F30A010B4338
:1023080043EA0803134343F48013C6F80035032D4A
:1023180001D0012D05D1D6F8003543F00053C6F899
:1023280000353846BDE8F883DA6842F48072DA602E
:102338000027B4E7DA6842F06002DA600027AEE707
:1023480040F29D62DA6019F0800F01D10027A6E7FC
:10235800DA6842F48072DA600027A0E740F22522AA
:10236800DA6019F0800F01D1002798E7DA6842F4A3
:10237800C072DA60002792E7012790E74FF400481F
:10238800A5E7022802D04FF40032A7E70022A5E70C
:102398000000044000F58060406980B2704770B466
:1023A80083B00023019300EB411101F5A062D1F83D
:1023B8000035C3F38143D1F800555468866816F098
:1023C800200F08D0ED0FE40F2CB9002D5AD0012BA7
:1023D80058D0032B56D01BB3022B21D0D1F800358F
:1023E80043F08043C1F80035D0F8103413F47F0F60
:1023F8004CD1D1F8003523F00043C1F80035D1F8AD
:10240800003543F00043C1F80035019B01330193C7
:10241800019BB3F57A7F35D81368002BF5DB31E0E3
:10242800D1F8003543F08043C1F80035836813F0D4
:10243800200F21D1C36A13F47F0F16D1D1F80035CC
:1024480023F00043C1F80035D1F8003543F00043CC
:10245800C1F80035019B01330193019BB3F57A7FE5
:1024680010D81368002BF5DB0CE0D1F8003543F0E9
:102478000043C1F8003505E0D1F8003543F00043CA
:10248800C1F80035002003B070BC7047D1F80035A2
:1024980043F00043C1F80035F4E7000000EB4110B9
:1024A800064AC0F81025D0F8003523F0804343F0E1
:1024B8000043C0F800350020704700BF00000880C6
:1024C80070B584B04B789D4CA04216D08C79012C05
:1024D8002DD00C6A002C65D08D8A04EB050C0CF10C
:1024E800FF3CBCFBF5FC1FFA8CFCBCF5807F5BD97C
:1024F8002D02CD614FF4807C56E0012A07D08C88EC
:10250800B4F5807FE2D11946FFF7C8FF2CE18C7C37
:102518000CB1022CDAD18C79002CD7D100EB431402
:10252800D4F80C5525F07005C4F80C55CEE7CC78D6
:1025380024B18C8ACC614FF0010C3CE08C7C012CDE
:1025480006D0012A26D00C6ACC614FF0010C32E08B
:102558000C6ABC2C0FD98C8ACC610C62CC68013C0B
:10256800012C03D90124CC60A44624E00224CC60C9
:102578004FF0010C1FE0CC61CC68013C012C04D960
:102588000424CC604FF0010C15E00324CC604FF01C
:10259800010C10E00D6A8C8AA542D4D9CC614FF0A9
:1025A800010C08E04FF0010CCD78002D62D08C8A28
:1025B80004FB0CF4CC61CC69C4F31204604D05EA49
:1025C800CC452C4391F816C04FEA4C7C0CF0C04C1B
:1025D80000EB431303F5A06E44EA0C04CEF8104058
:1025E80012B18C69CEF8144000F58065AC68D3F858
:1025F800006526F00056C3F80065D3F800656FEA59
:10260800040C4FEA4C7C0CF0005C46EA0C06C3F85C
:1026180000658C79012C2FD00024CEF80440D3F823
:1026280000450394039C24F080440394CC78002C48
:102638007FD0039C44F400440394039C44F000447A
:102648000394039CC3F80045002A40F08D80CB78A2
:10265800002B40F089800B6A002B00F08580CA7936
:10266800002A40F081808A7C032A76D8DFE802F0CD
:102678006A7F6A7FCC619EE74E7C0C7C44EAC61474
:1026880044F00044CEF80440DEF80C4044F0600406
:10269800CEF80C40CC79012C12D08C7C012C1FD0A8
:1026A800032C1DD08C7C012CB9D1CC78002CB6D150
:1026B800CC68013C032CB2D8DFE804F01F262D3487
:1026C800CC78002CE9D1DEF8044044F48034CEF80C
:1026D8000440DEF80C4044F04004CEF80C40DCE73F
:1026E800CC79012CDED1CC78012CDBD1DEF804408A
:1026F80044F48034CEF80440D4E7DEF8044044F4CF
:102708000044CEF804408AE7DEF8044044F00E04A2
:10271800CEF8044083E7DEF8044044F48044CEF861
:1027280004407CE7DEF8044044F44044CEF804401A
:1027380075E7039C24F4004403947EE700000440FA
:102748000000F81F0333C26A92B2C3F38F039A42A0
:1027580003D2836943F020038361002300930B8C29
:102768004A788969FFF70DFC002004B070BD033377
:102778002A6992B2C3F38F039A42EED2836943F077
:1027880080638361E9E700BF30B583B00446002366
:102798000193FFF7A8FB10212046FFF7AAFB054687
:1027A80000B101252046FFF7C9FB00B10125002231
:1027B8000AE004EB4211D1F8003523F0802343F0FE
:1027C8008043C1F8003501320F2AF2D9002100E018
:1027D80001310F2916D804EB411000F5A062D0F89A
:1027E800003523F4004343F04043C0F80035019B13
:1027F80001330193019BB3F57A7FE9D81368002B65
:10280800F5DBE5E74FF0FF33C4F814346361204685
:10281800FFF763FB284603B030BD0000002800F036
:10282800E08170B582B00446036813F0010F3BD015
:102838009F4B9B6803F00C03042B2CD09C4B9B688C
:1028480003F00C03082B21D06368B3F5803F4FD009
:10285800B3F5A02F52D0964B1A6822F480321A6032
:102868001A6822F480221A606368002B50D000F0A6
:10287800B9FD05468E4B1B6813F4003F14D100F0D8
:10288800B1FD401B6428F5D90320B1E1884B5B6892
:1028980013F4800FD8D0864B1B6813F4003F03D085
:1028A8006368002B00F09F81236813F0020F54D057
:1028B8007F4B9B6813F00C0F3ED07D4B9B6803F059
:1028C8000C03082B33D0E368002B68D0794B012226
:1028D8001A6000F087FD0546754B1B6813F0020F60
:1028E80054D100F07FFD401B0228F5D903207FE179
:1028F8006F4A136843F480331360B5E76C4B1A686A
:1029080042F480221A601A6842F480321A60ABE7F7
:1029180000F068FD0546664B1B6813F4003FC3D002
:1029280000F060FD401B6428F5D9032060E1604B8E
:102938005B6813F4800FC6D15D4B1B6813F0020F60
:1029480003D0E368012B40F05081594A136823F003
:10295800F803216943EAC1031360236813F0080FE1
:1029680042D063696BB3534B0122C3F8802E00F049
:1029780039FD05464E4B5B6F13F0020F34D100F062
:1029880031FD401B0228F5D9032031E1484A13687C
:1029980023F0F803216943EAC1031360DDE7454BDF
:1029A80000221A6000F01EFD0546414B1B6813F01B
:1029B800020FD2D000F016FD401B0228F5D90320E3
:1029C80016E13C4B0022C3F8802E00F00BFD0546B3
:1029D800374B5B6F13F0020F06D000F003FD401B6E
:1029E8000228F5D9032003E1236813F0040F77D0F8
:1029F8002F4B1B6C13F0805F33D1002301932C4BBA
:102A08001A6C42F080521A641B6C03F080530193D5
:102A1800019B0125284B1B6813F4807F23D0A368F2
:102A2800012B34D0052B38D0214B1A6F22F001022C
:102A38001A671A6F22F004021A67A368002B3DD0A8
:102A480000F0D0FC06461A4B1B6F13F0020F46D15C
:102A580000F0C8FC801B41F288339842F3D9032068
:102A6800C6E00025D6E7144A136843F48073136060
:102A780000F0B8FC0646104B1B6813F4807FCED1DB
:102A880000F0B0FC801B0228F5D90320B0E0084A0A
:102A9800136F43F001031367CFE7054B1A6F42F03A
:102AA80004021A671A6F42F001021A67C5E700BFED
:102AB80000380240000047420070004000F092FCDD
:102AC8000646524B1B6F13F0020F08D000F08AFC29
:102AD800801B41F288339842F3D9032088E0EDB98E
:102AE800A369002B00F08380484A926802F00C0228
:102AF800082A51D0022B17D0454B00221A6600F045
:102B080071FC0446414B1B6813F0007F42D000F073
:102B180069FC001B0228F5D9032069E03B4A136CC5
:102B280023F080531364DBE7394B00221A6600F068
:102B380059FC0546354B1B6813F0007F06D000F0A2
:102B480051FC401B0228F5D9032051E0E369226AB1
:102B58001343626A43EA8213A26A5208013A43EABB
:102B68000243E26A43EA0263284A5360284B01227F
:102B78001A6600F037FC0446244B1B6813F0007FEC
:102B880006D100F02FFC001B0228F5D903202FE006
:102B980000202DE000202BE0012B2BD01B4B5B6885
:102BA80003F48001E269914226D103F03F02216AD1
:102BB8008A4223D1616A47F6C0721A40B2EB811F7C
:102BC8001ED103F44031A26A5208013AB1EB024F18
:102BD80018D103F07063E26AB3EB026F14D10020DE
:102BE80006E001207047012002E0012000E00020FB
:102BF80002B070BD0120FBE70120F9E70120F7E7EB
:102C08000120F5E70120F3E70120F1E70038024051
:102C18000000474208B5334B9B6803F00C03042BB4
:102C28005BD0082B5BD12F4B5A6802F03F025B68E0
:102C380013F4800F2CD02B4B5868C0F388104FEA40
:102C4800401CBCEB000C6EEB0E0E4FEA8E1343EAF1
:102C58009C634FEA8C11B1EB0C0163EB0E03DB00B4
:102C680043EA5173C90011EB000C43F10003590208
:102C780000234FEA4C2041EADC51FDF7A1FA194B39
:102C88005B68C3F3014301335B00B0FBF3F008BD9D
:102C9800144B5868C0F388104FEA401CBCEB000C7A
:102CA8006EEB0E0E4FEA8E1343EA9C634FEA8C11CB
:102CB800B1EB0C0163EB0E03DB0043EA5173C9006F
:102CC80011EB000C43F10003990200234FEA8C201A
:102CD80041EA9C51FDF774FAD1E70348D7E7034866
:102CE800D5E700BF0038024000127A000024F40043
:102CF800002800F09B8070B50D4604464F4B1B68BA
:102D080003F007038B4208D2CBB24C4A1370136806
:102D180003F007038B4240F08B80236813F0020F07
:102D280017D013F0040F04D0454A936843F4E053D6
:102D38009360236813F0080F04D0414A936843F462
:102D4800604393603E4A936823F0F003A1680B4305
:102D58009360236813F0010F32D06368012B21D0F0
:102D68009A1E012A25D9364A126812F0020F61D03C
:102D780033498A6822F0030213438B6000F032FB68
:102D880006462F4B9B6803F00C036268B3EB820F77
:102D980016D000F027FB801B41F288339842F0D907
:102DA800032042E0264A126812F4003FE0D10120D5
:102DB8003BE0234A126812F0007FD9D1012034E0A9
:102DC8001E4B1B6803F00703AB4207D9EAB21B4B43
:102DD8001A701B6803F00703AB422DD1236813F068
:102DE800040F06D0164A936823F4E053E1680B43B6
:102DF8009360236813F0080F07D0114A936823F4EF
:102E08006043216943EAC1039360FFF703FF0C4B5A
:102E18009B68C3F303130B4AD35CD8400A4B186072
:102E28000A4B186800F092FA002070BD0120704724
:102E38000120FAE70120F8E70120F6E7003C02400C
:102E480000380240485F0008080000200400002005
:102E5800014B1868704700BF0800002008B5FFF74D
:102E6800F7FF044B9B68C3F38223034AD35CD84023
:102E780008BD00BF00380240405F000808B5FFF7F2
:102E8800E7FF044B9B68C3F34233034AD35CD84043
:102E980008BD00BF00380240405F000830B583B06D
:102EA8000446036813F0050F06D1236813F0020FD8
:102EB8002ED1002003B030BD4A4B00229A6600F0A4
:102EC80091FA0546484B1B6813F0006F06D000F0D6
:102ED80089FA431B022BF5D90320EBE76268A36844
:102EE8001B0743EA8213404AC2F884303D4B012253
:102EF8009A6600F077FA05463B4B1B6813F0006FA3
:102F0800D3D100F06FFA431B022BF5D90320D1E788
:102F180000230193344B1A6C42F080521A641B6CE4
:102F280003F080530193019B304A136843F4807384
:102F3800136000F057FA05462C4B1B6813F4807F8A
:102F480006D100F04FFA431B022BF5D90320B1E755
:102F5800254B1B6F13F4407314D0E26802F44072DF
:102F68009A420FD0204B1A6F22F440721D4901205B
:102F7800C1F8400E0020C1F8400E1A671B6F13F00D
:102F8800010F13D1E36803F44072B2F5407F1ED0FD
:102F9800154A936823F4F813936013490B6FE2689A
:102FA800C2F30B0213430B67002083E700F01AFA01
:102FB80005460D4B1B6F13F0020FE3D100F012FA18
:102FC800401B41F288339842F3D9032072E706493F
:102FD8008A6822F4F81223F0704323F440731343F1
:102FE8008B60DAE70000474200380240007000407A
:102FF800012801D000207047154B9B6813F400038B
:1030080002D01BB313487047114B5B6813F4800F51
:1030180014D00F4B5A6802F03F020F4BB3FBF2F388
:103028000B4AD2F88400C0F3881003FB00F0D2F8F2
:103038008430C3F30273B0FBF3F07047044B5A6853
:1030480002F03F02054BB3FBF2F3E9E700207047BB
:10305800003802400080BB0000127A000024F4000F
:1030680000230F2B00F2E98070B582B065E0856817
:103078004FEA430E032404FA0EF425EA0405CC684B
:1030880004FA0EF42C438460446824EA02044A6873
:10309800C2F300129A40224342605CE0DC08083424
:1030A80050F8242003F00705AD004FF00F0E0EFA7C
:1030B80005FE22EA0E0E0A69AA4042EA0E0240F80C
:1030C80024205CE0072200E0002202FA0EF22A43E4
:1030D80002345A4D45F82420594A94686FEA0C0284
:1030E80024EA0C054E6816F4801F01D04CEA04054A
:1030F800534CA560E46802EA04054E6816F4001F04
:1031080001D04CEA04054E4CE560646802EA040507
:103118004E6816F4003F01D04CEA0405484C65603F
:10312800246822404D6815F4803F01D04CEA04021F
:10313800434C226001330F2B7DD801229A400C6842
:1031480004EA020C32EA0404F4D14C6804F00304E3
:10315800013C012C8BD94A6802F00302032A09D0EA
:10316800C4685D000322AA4024EA02048A68AA40CF
:103178002243C2604A6802F00302022A8ED0046821
:103188004FEA430E032202FA0EF224EA02044A68C6
:1031980002F0030202FA0EF2224302604A6812F4B5
:1031A800403FC7D000220192264A546C44F4804420
:1031B8005464526C02F480420192019A9C08A51C46
:1031C8001E4A52F8255003F0030E4FEA8E0E0F22C6
:1031D80002FA0EF225EA02051B4A90423FF474AF48
:1031E80002F5806290421AD002F58062904218D0AF
:1031F80002F58062904216D002F58062904214D0A7
:1032080002F58062904212D002F58062904210D09E
:1032180002F5806290423FF455AF082255E701223B
:1032280053E7022251E703224FE704224DE7052224
:103238004BE7062249E702B070BD704700380140ED
:10324800003C014000380240000002400AB18161A0
:103258007047090481617047002807DB00F01F02EE
:10326800400901239340024A42F82030704700BFCA
:1032780000E100E0002808DB0901C9B200F1604064
:1032880000F5614080F80013704700F00F00090155
:10329800C9B2014B1954704714ED00E000B500F0B5
:1032A8000700C0F1070CBCF1040F28BF4FF0040C55
:1032B800031D062B0ED9C31E4FF0FF3E0EFA0CF06D
:1032C80021EA000199400EFA03FE22EA0E0241EAC1
:1032D800020000BD0023EFE7074AD36823F4E06348
:1032E8001B041B0C000200F4E060034343F0BF63BF
:1032F80043F40033D360704700ED00E010B5044696
:10330800054BD868C0F30220FFF7C8FF01462046E6
:10331800FFF7B0FF10BD00BF00ED00E008B5FFF7F4
:103328009BFF08BD0138B0F1807F0BD24FF0E0233E
:103338005861054AF02182F823100020986107227D
:103348001A6170470120704700ED00E010B504468F
:103358000E4B18680E4B1A784FF47A73B3FBF2F3DE
:10336800B0FBF3F0FFF7DEFF68B90F2C01D901209D
:103378000AE0002221464FF0FF30FFF7BFFF054B60
:103388001C60002000E0012010BD00BF08000020E4
:10339800000000200400002008B50B4B1A6842F416
:1033A80000721A601A6842F480621A601A6842F45D
:1033B80080721A600320FFF78FFF0020FFF7C6FF17
:1033C800FDF722FB002008BD003C0240034A1168BB
:1033D800034B1B780B441360704700BF380900206B
:1033E80000000020014B1868704700BF3809002012
:1033F80038B50446FFF7F6FF0546B4F1FF3F02D0A3
:10340800044B1B781C44FFF7EDFF401BA042FAD386
:1034180038BD00BF00000020002800F0CC8070B547
:10342800044690F83D30002B77D0242384F83D30B3
:103438002268136823F0010313602268136843F4B9
:10344800004313602268136823F400431360FFF7F6
:1034580005FD62685A4B9A4264D85A4B98428CBF11
:1034680000230123002B40F0A8805749A1FB00311D
:103478008B0C25686A6822F03F0242EA91426A6032
:1034880021680A6A22F03F0266684D4DAE424FD865
:10349800013313430B622168CA6922F44F4222F0B8
:1034A800FF026568464B9D424CD8431E6D00B3FB36
:1034B800F5F3013340F6FC70034278D0C3F30B03F5
:1034C8001A43CA6121680B6823F0C003E269206AC5
:1034D800024313430B6021688B6823F4034323F0F2
:1034E800FF032269E068024313438B602168CB68BD
:1034F80023F0FF036269A06902431343CB6022688B
:10350800136843F00103136000202064202384F82B
:103518003D30206384F83E0070BD80F83C30FDF7F4
:1035280057F982E7294B98428CBF0023012399E77A
:103538004FF4967505FB03F3254DA5FB03539B0933
:103548000133A6E7A668BEB9431E05EB450CB3FBDD
:10355800FCF30133C3F30B03B3FA83F35B0943BBF7
:10356800C6B9431E05EB4505B3FBF5F30133C3F3B9
:103578000B0343F40043A3E7431E05EB850C0CEB58
:103588008C0CB3FBFCF30133C3F30B03B3FA83F3E3
:103598005B09E4E7431E05EB850505EB8505B3FBF1
:1035A800F5F30133C3F30B0343F4404388E70423E3
:1035B80086E7012384E7012070470120ACE700BFBC
:1035C800A08601007F841E0083DE1B43FF083D00A8
:1035D800D34D6210002800F0BE8038B5044690F83C
:1035E8004130002B51D0022284F841202168CB6958
:1035F80023F47B6323F00F03CB6123681A626369AA
:10360800934269D0E368002B46D11025A368202B8C
:1036180000D86D000120FFF7EBFC2369B3F5007FAC
:103628003CD0B0FBF5F000EB800043006269B3FBCF
:10363800F2F30533494AA2FB0323C3F3C002C2EBEA
:10364800D3035B0811029A1EFD2A3FD822690A4358
:1036580021681A430A622168CB6923F47B6323F04B
:103668000F036268A0680243E0680243A06902434E
:10367800134343F40063CB61236A012B2ED000204F
:103688006064012384F8413038BD80F84030344B01
:103698004363FDF7F3F8A6E72025B7E7E36853B1DE
:1036A800AD00B0FBF5F000EB800043006269B3FBAE
:1036B800F2F30533BEE7ED00B0FBF5F000EB800058
:1036C80043006269B3FBF2F30533B3E7636C43F07D
:1036D800100363640120D7E70021B7E7214B636338
:1036E8002268214B9A421FD04FF04022D36923F41D
:1036F8007B6323F00F03D36122681B4B9A4215D0DA
:103708004FF04022022313622268174B9A420FD0CF
:103718004FF04025EB699BB26268B2F5007F09D093
:10372800BAB94FF4807007E0104ADFE70F4AE9E7BB
:103738000E4DEFE74FF48070B4F808C0A189228BD2
:1037480040EA0C0001430A43134343F40063EB616E
:1037580095E70020F0E70120704700BFCDCCCCCC26
:10376800EF370008FD3900080038004000340040F9
:10377800704708B5426A03681288DA60436A023300
:103788004362438D9BB2013B9BB24385438D9BB201
:1037980003B108BD0268536823F0A00353600123F6
:1037A80080F84130FFF7E4FFF3E7704708B5036896
:1037B800DA68C36A1A80C36A0233C362438E9BB253
:1037C800013B9BB24386438E9BB203B108BD02689E
:1037D800536823F060035360012380F84130FFF7FA
:1037E800E4FFF3E7704710B584B0044603689A68AD
:1037F800039290F84120042A05D094F84130032B15
:103808002CD004B010BD039A12F0010F03D05B68EE
:1038180013F0400F1FD1039B13F0400FEDD0236826
:103828005A6812F0200FE8D05A6822F060025A60F5
:10383800002301932368DA6801929B680193019B36
:10384800012384F84130636C43F00203636420462B
:10385800FFF7C8FFD1E7FFF7A9FFDCE7039B13F0E9
:10386800020F04D023685B6813F0800F1DD1039BFF
:1038780013F0080FC5D023685A6812F0200FC0D083
:103888005A6822F0A0025A600023029323689B68BA
:103898000293029B012384F84130636C43F00403D4
:1038A80063642046FFF79EFFABE72046FFF761FF02
:1038B800DDE7704708B5436A9A1C426202681B88B4
:1038C800D360438D9BB2013B9BB24385438D9BB232
:1038D8003BB90268536823F0A0035360438E9BB240
:1038E80003B108BD012380F84130FFF7E2FFF8E794
:1038F80008B50268154B9A421CD04FF04023DA688D
:10390800C36A991CC1621A80438E9BB2013B9BB269
:103918004386438E9BB263B902680C4B9A420CD023
:103928004FF04022536823F060035360438D9BB2ED
:103938002BB108BDA3F58063E1E7054AF2E701234F
:1039480080F84130FFF7B5FFF3E700BF00380040CB
:103958000034004008B5436A9A1C42621A8801681C
:10396800134B994218D04FF04023DA60438D9BB235
:10397800013B9BB24385438D9BB263B902680C4BF4
:103988009A420CD04FF04022536823F0A0035360B2
:10399800438E9BB22BB108BDA3F58063E5E7054ACA
:1039A800F2E7012380F84130FFF783FFF3E700BF18
:1039B800003800400034004008B50368DA68C36A7C
:1039C800991CC1621A80438E9BB2013B9BB243860D
:1039D800438E9BB23BB90268536823F0600353607F
:1039E800438D9BB203B108BD012380F84130FFF736
:1039F80060FFF8E710B586B0044603689A68059238
:103A0800704A93426FD04FF04022916804915B68EE
:103A18000393536802936368B3F5007F01D0002BCA
:103A280070D1059B13F0020F03D0039B13F0800F96
:103A38005CD1049B13F0010F03D0029B13F0400FDD
:103A480058D1049B13F0400F24D0029B13F0200F91
:103A580020D022685B4B9A4250D04FF040225368E6
:103A680023F0600353602268536823F0A003536077
:103A7800002300932368DA6800929B680093009BF8
:103A8800012384F84130636C43F0020363642046E9
:103A9800FFF7A8FE059B13F0080F22D0039B13F035
:103AA800200F1ED02268536823F0A00353602268B9
:103AB800444B9A4224D04FF04022536823F06003CD
:103AC80053600023019323689B680193019B0123A2
:103AD80084F84130636C43F0040363642046FFF7C5
:103AE80081FE06B010BDA2F580628EE72046FFF782
:103AF800E1FE9EE72046FFF7FBFEA2E7324AAEE76B
:103B0800314ADAE7049B13F0020F03D0029B13F04B
:103B1800800F4AD1059B13F0010F03D0039B13F0CC
:103B2800400F46D1059B13F0400F1CD0039B13F0A8
:103B3800200F18D02268536823F06003536022686E
:103B4800204B9A4239D04FF04022536823F0A0030B
:103B58005360012384F84130636C43F002036364CB
:103B68002046FFF73FFE049B13F0080FB9D0029BD5
:103B780013F0200FB5D02268124B9A421FD04FF095
:103B88004022536823F0A00353602268536823F04F
:103B980060035360012384F84130636C43F00403ED
:103BA80063642046FFF71EFE9BE72046FFF7D2FE20
:103BB800B0E72046FFF700FFB4E7034AC5E7024A2B
:103BC800DFE700BF003800400034004010B504466D
:103BD8000268136923F44053C1680B431361836877
:103BE80002691A4343691A43C3691A430168CB68D7
:103BF80023F4164323F00C031343CB600268536984
:103C080023F4407381690B4353610368314A93423B
:103C180006D002F58062934202D0FFF71FF901E057
:103C2800FFF72CF9E369B3F5004F29D000210318F9
:103C380049411B1841F10001C90041EA5371DB00F9
:103C4800181863684FEA83024FEA937341F1000141
:103C5800FCF7B6FA204AA2FB00314909642303FBAA
:103C680011031B013233A2FB03235B0903F0F002AB
:103C780002EB011203F00F03216813448B6010BD9F
:103C88000023021843EB0301121841F10001C90097
:103C980041EA5271D200101841F10001626892188D
:103CA8005B41FCF78DFA0C4AA2FB003149096423F9
:103CB80003FB1103DB003233A2FB03235B095A0029
:103CC80002F4F87202EB011203F0070321681344AF
:103CD8008B60D4E7001001401F85EB5160B310B52D
:103CE800044690F8413013B3242384F84130226805
:103CF800D36823F40053D3602046FFF767FF226898
:103D0800136923F4904313612268536923F02A034B
:103D180053612268D36843F40053D3600020606481
:103D2800202384F8413084F84230606310BD80F865
:103D38004030FCF71FFED7E701207047034AD2F84E
:103D4800883043F47003C2F88830704700ED00E013
:103D580008B503780B2B00D008BDD0F87C33002BB6
:103D6800FAD09B699847F7E738B50446002306E080
:103D780003F1E00204EB82020021516001330F2BB2
:103D8800F6D9002304E0E218002182F81C1101335F
:103D9800B3F5007FF7D30025257065700123A37064
:103DA800C4F8C45323764022A271657684F81C5364
:103DB80084F81D3384F81F5384F81E534FF480721F
:103DC800294604F11C0002F01DF84FF40072294640
:103DD80004F58E7002F016F8C4F82653C4F82A5376
:103DE800C4F82E53C4F83253A4F836533E22294659
:103DF80004F54E7002F006F8284638BD70B584B058
:103E080004464578072D00F22C81DFE815F00800FC
:103E1800480069009A00BF00E50000011901082167
:103E280000F018FE18B1032821D00125DAE094F833
:103E38002D33A3710125657002930026019694F82D
:103E48001D33009394F81C3380222179204600F01A
:103E58000CFFA3790293019694F81D33009394F80C
:103E68001C3332466179204600F0FFFEBAE094F830
:103E78001E330133DBB284F81E33032B03D90D2321
:103E880023700125AEE06179204600F016FF217904
:103E9800204600F012FF002323700125A2E0122122
:103EA80000F0D8FD10B9022363709BE0032840F0AE
:103EB800998094F81E330133DBB284F81E33032B48
:103EC80002D90D2323708DE06179204600F0F5FEBC
:103ED8002179204600F0F1FE00236370237081E011
:103EE800012100F00DFE18B1032824D0012579E046
:103EF8000220FCF782FE012584F81C53032363701B
:103F0800A37902930026019694F81D3300932B465B
:103F180080222179204600F0A8FEA3790293019619
:103F280094F81D33009394F81C3332466179204687
:103F380000F09BFE56E00D232370002363700125DB
:103F480050E0092100F0A1FD18B904236370012590
:103F580048E0032801D0012544E094F81E330133DA
:103F6800DBB284F81E33032B03D90D2323700125FC
:103F780038E06179204600F0A0FE2179204600F063
:103F88009CFE00236370237001252BE0B0F83A13E0
:103F980000F07BFD18B905236370012522E0032892
:103FA80001D001251EE094F81E330133DBB284F8FA
:103FB8001E33032B03D90D232370012512E06179E9
:103FC800204600F07AFE2179204600F076FE002394
:103FD80063702370012505E090F8341329B906238E
:103FE80043700125284604B070BDFF2300F58E728A
:103FF80000F066FD18B9062363700125F2E703286F
:1040080001D00125EEE7062363700125EAE790F861
:10401800351319B9072343700125E3E7FF2300F59A
:104028008E7200F04DFD18B9072363700125D9E79A
:10403800032801D00125D5E7072363700125D1E7BF
:1040480090F83653002DCDD0FF2300F58E72294607
:1040580000F036FD05460028C4D0032803D001250A
:10406800C0E70125BEE70025BCE7D8B170B50E460C
:10407800044680F8CC230025C0F87C53C0F8805350
:10408800FFF772FE84F8235384F8205384F82153F1
:1040980084F822530EB1C4F8D4632046FCF740FDDF
:1040A800002070BD022070470A4651B1D0F8803315
:1040B8004BB9591CC0F88013DE3340F82320002088
:1040C8007047022070470220704790F83C338B42BB
:1040D80003D980F82413002070470220704710B5D8
:1040E800044600200BE04FF01A0C0CFB0E4E9EF815
:1040F80049C39C451CD0FF2B1AD00130C0B20128FF
:1041080015D886464FF01A0C0CFB004C9CF847C398
:104118008C4501D0FF29F0D14FF01A0C0CFB0E4C46
:104128009CF848C39445DED0FF2AE6D1DBE7FF20A0
:1041380010BD10B50446FCF76EFD01212046FCF7C2
:1041480037FD002010BD30B587B0044602238DF836
:10415800173090F82133012B10D023780B2B7BD804
:10416800DFE813F00F00210045000F017A007D0001
:10417800ED0092009C00A600C10006010323037015
:10418800EBE794F82033002B66D001232370C82076
:10419800FCF733FD2046FCF74EFD002384F81C3362
:1041A800C4F8C83358E094F82333012B0FD0D4F85F
:1041B800C833B3F57A7F13D994F81F330133DBB2D0
:1041C80084F81F33032B08D90D23237044E0002300
:1041D80084F81F33022323703EE0002323703BE062
:1041E8000A33C4F8C8330A20FCF707FD34E0D4F8D2
:1041F800D43313B10421204698476420FCF7FDFC12
:104208002046FCF7B7FC84F81D0305232370002122
:10421800204600F03FFD60718021204600F03AFD05
:1042280001462071A37902930025019594F81D3366
:10423800009394F81C338022204600F016FDA379E1
:104248000293019594F81D33009394F81C332A4681
:104258006179204600F009FD002007B030BD2046F6
:10426800FFF7CCFD8DF817009DF81730002BF3D120
:1042780084F8243394F83733012B02D007232370B2
:10428800EAE708232370E7E7D4F8D433002BE3D018
:1042980001212046984708232370DDE794F83D1351
:1042A800204600F03EFC0028D6D109232370D3E72E
:1042B80094F83F3313F0200F02D10A232370CBE781
:1042C8000121204600F03EFC8DF817009DF81730BC
:1042D80013B90A232370BFE79DF81730032BBBD10E
:1042E8000A232370B8E7D4F88033002BB4D0002316
:1042F800C4F87C3373B1D4F87C33EBB19B682046A7
:104308009847B0B906232370D4F8D4330321204644
:104318009847A1E703F1DE0254F82220107994F8B7
:104328004713884202D00133DBB2E3E7C4F87C23A9
:10433800E1E70D2323708FE70D2323708CE7D4F872
:104348007C3393B11B69204698478DF817009DF878
:10435800173013B90B2323707EE79DF81730022B13
:104368007FF47AAF0D23237076E70D23237073E76C
:10437800D4F87C33002B3FF46FAF5B692046984735
:104388006AE7002384F821332046FFF7EDFCD4F8D0
:104398007C332BB1DB68204698470023C4F87C3374
:1043A800D4F8D43313B105212046984794F8223322
:1043B800012B03D02046FCF72EFC4DE7002384F8A0
:1043C80022332046FFF7B5FE46E7C0F8C41370470E
:1043D80008B5D0F8C4230132C0F8C423FFF7B8FCED
:1043E80008BD012380F823337047002380F8233366
:1043F800012380F8213370470346012280F82023E7
:10440800002083F8210383F82203704738B5044657
:10441800012380F82133002580F8205380F82353A6
:10442800FCF701FC2179204600F047FC6179204621
:1044380000F043FC284638BD03468C46002970D05E
:10444800097880F826139CF8011080F827139CF847
:1044580002109CF8030041EA0021A3F828139CF8F5
:10446800041083F82A139CF8051083F82B139CF882
:10447800061083F82C139CF8071083F82D1393F873
:104488001D0301282DD9022840D00320082A49D924
:104498009CF808209CF8091042EA0122A3F82E2370
:1044A8009CF80A209CF80B1042EA0122A3F830235A
:1044B8009CF80C209CF80D1042EA0122A3F8322344
:1044C8009CF80E2083F834239CF80F2083F83523BA
:1044D8009CF8102083F836239CF8112083F83723A2
:1044E800704720290BD808290BD30839C9B20E48C0
:1044F80020FA01F111F0010F03D00020C6E740298E
:104508000BD0082183F82D130020BFE7082906D017
:10451800082183F82D130020B8E70020B6E7002013
:10452800B4E70220704700BF010100010B78037057
:104538004B7843708B788370CB78C3700B79037199
:104548004B7943718B798371CB79C3710B7A037281
:10455800704710B5864613780B7053784B70937874
:104568008B7092F803C081F803C01379507943EA3D
:1045780000238B8094798C715A1E92B2B2F5007F19
:104588000CD200209EF81D23CAB90CF0030CBCF114
:10459800030F46D8DFE80CF0090D040D0320F1E7FE
:1045A800B3F5007F10D903200EE0402B0CD903206F
:1045B8000AE0013CE4B20F2C06D9032004E0012AEA
:1045C80003D0022A1CD0032010BD0CF0030CBCF150
:1045D800030F28D8DFE80CF00206020E402BF3D9AF
:1045E8000320F1E7013CE4B20F2C1ED8402BEBD995
:1045F8000320E9E7DCB1B3F5806FE5D36046E3E774
:104608001CF0030C03D1082BDED00320DCE7BCF13F
:10461800030F01D00320D7E75CB1082BD4D960463B
:10462800D2E70320D0E70320CEE70320CCE760469B
:10463800CAE76046C8E74378032B00D07047037881
:10464800023B9A4228BF1A4692B2002307E000EBC9
:10465800030C9CF802C001F801CB02339BB29342D1
:10466800F5D300230B70E9E730B583B00446057E27
:104678006B1E0A2B00F2DD80DFE803F006103541DF
:1046880055627D899CA9C000427900F1100100F0B3
:104698007CFA02232376284603B030BD4179FCF723
:1046A80081FA0546012805D0042818D0022816D01A
:1046B8000125F0E7237CE28A42B113F0800F02D192
:1046C80005232376E7E703232376E4E713F0800F37
:1046D80002D107232376DEE709232376DBE70B23C2
:1046E80023760125D7E7D0F8C433C38103798289BB
:1046F800816800F071FA042323760125CBE701795C
:10470800FCF750FA0546012806D0052800F09380EA
:10471800042804D00125BEE709232376BBE70B2331
:1047280023760125B7E701250095437982898168B9
:1047380000F03CFAD4F8C433E38106232376AAE7D1
:104748004179FCF72FFA0546431E042B75D8DFE89C
:1047580003F0030A740E0600072323769BE70C2355
:104768002376032597E705232376012593E70B2373
:10477800237602258FE703790022114600F02CFAF0
:10478800D4F8C433E38108232376012583E701792C
:10479800FCF708FA012805D0042807D005284ED0D0
:1047A800012578E70D232376002574E70B2323766C
:1047B800012570E70125009543790022114600F094
:1047C800F5F9D4F8C433E3810A23237663E7417902
:1047D800FCF7E8F9012805D0022807D0042809D0F9
:1047E800012558E70D232376002554E7092323766E
:1047F800012550E70B23237601254CE7437E01333F
:10480800DBB24376022B03D801250576857042E793
:10481800D0F8D4330621984700256576617920467B
:1048280000F04BFA2179204600F047FA257002255E
:1048380031E701252FE703252DE701252BE7032580
:1048480029E70B88027813440B80037818447047D3
:104858002DE9F04383B0002900F0B28005460C46EC
:104868000B78092B01D009230B70237885F838338E
:10487800637885F83933A378E17843EA0123B3F5FF
:10488800807F28BF4FF48073A5F83A33237985F8E1
:104898003C33637985F83D33A37985F83E33E37972
:1048A80085F83F33237A85F84033092A40F28A8015
:1048B8000923ADF8063000263746012E77D8B5F81B
:1048C8003A23BDF806309A4271D90DF10601204607
:1048D800FFF7B7FF04464378042BEED10378092B82
:1048E80001D009230370B14605F54E701A2306FB63
:1048F80003F30833184421460230FFF717FE4FF040
:10490800000814E00723237005F54E7108F101082B
:104918001A2303FB09F303EBC8030833194422469F
:1049280004312846FFF715FE07465FFA88F8B8F104
:10493800010F32D81A2303FB095393F84633434532
:104948002BD9B5F83A23BDF806309A4225D90DF18E
:1049580006012046FFF775FF04464378052BE6D18C
:104968001A2303FB095393F84733012BCAD11A239F
:1049780003FB095393F84833023BDBB2012BC1D840
:104988001A2303FB095393F84933002BBCD103784E
:10499800092BB9D009230370B6E71A2303FB095979
:1049A80099F84633434512D80136F6B285E795F8AB
:1049B8003C33022B28BF0223B34204D9032702E069
:1049C800022700E00027384603B0BDE8F08303273C
:1049D800F9E710B504468078012803D0022808D0EA
:1049E800012005E0A160A281012323760223A370A0
:1049F80010BD2046FFF738FE30B1032804D0022846
:104A0800F6D10123A370F3E70123A37000232376D3
:104A1800EEE708B58E4694461946BDF80820837817
:104A2800012B02D0FFF7D5FF08BD6EF07F0E80F88E
:104A380010E006234374A0F812C00CF47F4CBCF5B8
:104A4800407F03D000238382C282EBE740F2094310
:104A58008382F9E7B1F5007F15D870B582B00546B5
:104A68000C4600F58E76009133464FF48072002193
:104A7800FFF7CFFF08B102B070BD22463146284685
:104A8800FFF7DAFCF7E703207047B1F5807F15D808
:104A980070B582B004460D4600F11C0600913346FD
:104AA8004FF400720021FFF7B4FF08B102B070BDE7
:104AB8002A4631462046FFF7CBFEF7E7032070472A
:104AC800F0B583B0B3F5007F16D815461C46AAB1D9
:104AD80000F58E7700933B4641F440720021FFF7C2
:104AE80098FF064610B1304603B0F0BD224629466D
:104AF8003846FFF7A0FDF6E70326F4E70326F2E7BA
:104B080008B58378012B04D000221146FFF761FF16
:104B180008BD002303740522427441828382C38244
:104B2800F2E708B58378012B04D000221146FFF77D
:104B380050FF08BD00230374092242744182838216
:104B4800C382F2E708B58378012B04D0002211460E
:104B5800FFF73FFF08BD002303740322427441821C
:104B68008382C382F2E708B58378012B04D0002240
:104B78001146FFF72EFF08BD022303740123437477
:104B8800002343828182C382F1E710B584B00B46CB
:104B980011460024039408220292019300942346AC
:104BA8002246FCF763F8204604B010BD30B585B046
:104BB8000C4619469DF8203090F81D5305B1002386
:104BC8000393029201940123009300231A46FCF7F1
:104BD8004DF8002005B030BD30B585B00D461946FA
:104BE8000024039402920195012200922346FCF7C7
:104BF8003DF8204605B030BD30B585B00C461946A5
:104C08009DF8203090F81D5305B1002303930292BC
:104C180001940123009302230022FCF727F80020C7
:104C280005B030BD30B585B00D4619460024039453
:104C380002920195012200920223FCF717F8204600
:104C480005B030BD00230F2B0CD803F1E00200EBB8
:104C58008202526812F4004F02D00133DBB2F2E74D
:104C6800184670474FF6FF70704710B584B0BDF80E
:104C7800204002949DF81C4001949DF8184000942F
:104C8800FBF7E1FF002004B010BD08B5FBF788FF73
:104C9800002008BD38B504460D46FFF7D3FF4FF690
:104CA800FF73984207D000F00F0345F40045E03346
:104CB80004EB83046560C0B238BD0F2906D8E03123
:104CC80000EB81004368C3F30E0343600020704784
:104CD8000020704708B52122027420224274002265
:104CE800428282820722C282FFF773FE08BD08B59E
:104CF800A122027421224274002242828282072267
:104D0800C282FFF766FE08BD38B50446D0F87C338A
:104D1800D9694031FFF7EBFF054620B9D4F8D43301
:104D2800022120469847284638BD38B50446D0F8B1
:104D38007C33DD69297879B9297BB1B9697BF1B907
:104D4800D4F87C33D86928B100F0A6FFD4F87C33B6
:104D58000022DA61002038BDFFF797FF2978204646
:104D6800FFF7ABFF00232B70E6E72046FFF78DFF28
:104D7800297B2046FFF7A1FF00232B73DEE720469F
:104D8800FFF783FF697B2046FFF797FF00236B73CC
:104D9800D6E7F0B585B00446012302221146FFF795
:104DA8009EF9012800F2AE80064601462046FFF72C
:104DB8008CF90746002840F0A980D4F87C5350208D
:104DC80000F062FFE861D4F87C33DD69002D00F063
:104DD8009F8050220021284601F014F81A2303FB73
:104DE800064393F84E2393F94E33002B72DB697810
:104DF8002046FFF74FFF014628706A786B890293B7
:104E08000323019394F81D33009394F81C33204630
:104E1800FFF72BFF002229782046FBF7D7FE002357
:104E28001A460A212046FFF75AF9012872D81A2390
:104E380003FB004393F84E2393F94E33002B51DBC9
:104E4800AA731A2303FB0043B3F850332B831A23A6
:104E580003FB004393F8562393F95633002B49DBA1
:104E6800AA731A2303FB0040B0F858332B83A97B9D
:104E78002046FFF70FFF6873E97B2046FFF70AFF1C
:104E88002873AA7B697B2B8B02930226019694F8E0
:104E98001D33009394F81C332046FFF7E6FEEA7BA7
:104EA800297B6B8B0293019694F81D33009394F839
:104EB8001C332046FFF7D9FE002685F84C603246A1
:104EC800697B2046FBF782FE3246297B2046FBF7AA
:104ED8007DFE18E06A701A2303FB0646B6F85033C5
:104EE8006B8184E7EA731A2303FB0043B3F850335A
:104EF8006B83ACE7EA731A2303FB0043B3F8583318
:104F08006B83B4E70227384605B0F0BD0227FAE7FD
:104F18000227F8E70227F6E7704730B583B0054661
:104F2800D0F87C33DC6994F84D30012B0CD0022B7F
:104F380018D1617BFBF736FE01281ED0022811D15B
:104F4800012384F84D300DE0606A228B90420BD922
:104F5800637BE169012000902846FFF74DFE02239C
:104F680084F84D3003B030BD637BE16901220092C3
:104F780082B22846FFF740FEF1E7636A228B93422C
:104F88000AD99B1A6362E3691344E361636A33B124
:104F9800012384F84D30E5E700236362F6E7002338
:104FA80084F84D302846FFF7B7FFDBE7704738B580
:104FB8000446D0F87C33DD6995F84E30032B17D0C2
:104FC800042B1DD1297BFBF7EDFD012818D1297B86
:104FD8002046FBF7DFFDAB6A834202D06A8B824230
:104FE8000FD0002385F84E302046FFF7DFFF07E09B
:104FF8002B7B6A8B296AFFF715FE042385F84E3050
:1050080038BD1B1AAB622B6A03442B62032385F855
:105018004E30F5E7704770B50446D0F87C33DE694A
:1050280096F84C50042D04D8DFE805F03B051335FD
:105038003D00012535E0B16CFFF74CFE18B902239D
:1050480086F84C302DE0012836D0042386F84C3001
:1050580027E006F14001FFF74AFE0546A0B9002304
:1050680086F84C30736CB26C51684B4033F07F4318
:1050780024D1316C1368994201D0012511E02046F2
:10508800FFF7C8FF01250CE001280AD0042386F8A1
:105098004C30012505E0FFF740FF2046FFF787FF6A
:1050A8000125284670BD0021FFF75DFD40B90023AA
:1050B80086F84C300125F4E70546F2E70125F0E7CC
:1050C8000125EEE710B503460C4A0D490D48006866
:1050D80040B10C4800680344521A934206D8094A62
:1050E800136010BD0748084C0460F2E700F0A2FE08
:1050F8000C2303604FF0FF30F3E700BF00000220ED
:10510800000400003C090020180B00200268094B2D
:105118009A4200D0704782B000230193064B1A6C64
:1051280042F002021A641B6C03F002030193019B14
:1051380002B07047000400400038024000B587B054
:1051480000230193029303930493059302680D4B84
:105158009A4201D007B000BD002300930A4B1A6B96
:1051680042F001021A631B6B03F001030093009BDA
:105178004023019302230293059301A90348FDF7F5
:105188006FFFE7E7000400400038024000000240DB
:1051980000B58FB000230A930B930C930D930893DB
:1051A800099301930293039304930593069307933A
:1051B8002148224A0260A7224260836044F61F62A7
:1051C800C2600361836100F06BF928BB4FF4805320
:1051D8000A930AA9184800F06EFA00BB164800F0B6
:1051E8008BF9F8B900230893099308A9124800F02D
:1051F800E1FAD0B96023019340F2DC530293002214
:105208000392059201A90C4800F0DAF980B90A481E
:10521800FFF794FF0FB000BDFBF768F9D6E7FBF77F
:1052280065F9DBE7FBF762F9DCE7FBF75FF9E1E734
:10523800FBF75CF9EBE700BF4009002000040040E1
:1052480030B4036A026A22F0010202624268846989
:1052580024F0730C0C6844EA0C0423F0020C8B68ED
:1052680043EA0C03114DA84203D005F58065A84216
:1052780005D123F00803CD682B4323F004030B4D1D
:10528800A84203D005F58065A84207D122F44072F0
:105298004D6945EA020C8A6942EA0C02426084615F
:1052A8004A684263036230BC704700BF0000014097
:1052B80030B4036A026A22F4807202624268C469E6
:1052C80024F0730C0C6844EA0C0523F400738C6812
:1052D80043EA0423114CA04203D004F58064A042A1
:1052E80006D123F40063CC6843EA042323F48063E3
:1052F8000A4CA04203D004F58064A04207D122F4EE
:1053080040524C6942EA04128C6942EA0412426033
:10531800C5614A68C263036230BC7047000001403F
:1053280030B4036A026A22F4805202624468C26995
:1053380022F4E6420D6842EA052223F400538D6800
:1053480043EA0533094DA84203D005F58065A84214
:1053580004D124F480444D6944EA85144460C26150
:105368004A680264036230BC704700BF0000014015
:1053780010B4036A046A24F001040462846924F006
:10538800F00C4CEA021223F00A030B438261036219
:105398005DF8044B704710B4036A046A24F01004E3
:1053A8000462846924F4704C4CEA023223F0A003AE
:1053B80043EA0113826103625DF8044B7047836816
:1053C80023F070030B4343F0070383607047704773
:1053D8000368324A904212D0B0F1804F0FD0A2F544
:1053E8007C4290420BD002F58062904207D002F5D1
:1053F8008062904203D002F57842904203D123F0B4
:1054080070034A681343254A90422AD0B0F1804F6E
:1054180027D0A2F57C42904223D002F580629042C8
:105428001FD002F5806290421BD002F5784290426C
:1054380017D002F57052904213D002F58062904264
:105448000FD002F5806290420BD0A2F598329042BC
:1054580007D002F58062904203D002F58062904244
:1054680003D123F44073CA68134323F080034A69C5
:1054780013438A68C2620A688262084A904203D06B
:1054880002F58062904201D10A690263026842F023
:10549800040202600122426103607047000001407B
:1054A80040B310B5044690F83D30F3B1022384F8B8
:1054B8003D30214651F8040BFFF78AFF012384F899
:1054C800463084F83E3084F83F3084F8403084F821
:1054D800413084F8423084F8433084F8443084F80A
:1054E800453084F83D30002010BD80F83C30FFF78F
:1054F8000DFEDBE70120704740B310B5044690F875
:105508003D30F3B1022384F83D30214651F8040BB5
:10551800FFF75EFF012384F8463084F83E3084F8B4
:105528003F3084F8403084F8413084F8423084F8C1
:10553800433084F8443084F8453084F83D30002006
:1055480010BD80F83C30FFF742FFDBE701207047D1
:1055580030B4036A026A22F0100202624468826967
:1055680022F4E6420D6842EA052223F020038D6802
:1055780043EA0513114DA84203D005F58065A842FA
:1055880006D123F08003CD6843EA051323F04003D6
:105598000A4DA84203D005F58065A84207D124F436
:1055A80040644D6944EA85048D6944EA8504446091
:1055B80082614A688263036230BC70470000014020
:1055C80038B590F83C30012B66D004460D460123CF
:1055D80080F83C300C2A5AD8DFE802F007595959AC
:1055E8001B5959593059595944000068FFF728FE8A
:1055F8002268936943F0080393612268936923F052
:10560800040393612268936929690B43936100201D
:105618003EE00068FFF79CFF2268936943F400634B
:1056280093612268936923F4806393612268936984
:10563800296943EA01239361002029E00068FFF704
:1056480037FE2268D36943F00803D3612268D3691F
:1056580023F00403D3612268D36929690B43D3611A
:10566800002015E00068FFF75BFE2268D36943F469
:105678000063D3612268D36923F48063D36122680D
:10568800D369296943EA0123D361002000E001209E
:10569800002384F83C3038BD0220FCE710B484684D
:1056A80024F47F4C42EA03220A4342EA0C02826055
:1056B8005DF8044B704790F83C30012B78D010B55A
:1056C8000446012380F83C30022380F83D3002680C
:1056D800936823F47F4323F0770393600B68602B70
:1056E8004CD023D8402B54D011D8202B03D00AD823
:1056F8000BB1102B05D119462068FFF760FE00207A
:1057080028E0012026E0302BF5D0012022E0502BA4
:105718000AD1CA6849680068FFF72AFE5021206844
:10572800FFF74DFE002015E0012013E0B3F5805F80
:105738003AD0B3F5005F14D0702B37D1CB684A68E4
:1057480089680068FFF7AAFF2268936843F0770327
:1057580093600020012384F83D30002384F83C3016
:1057680010BDCB684A6889680068FFF797FF226810
:10577800936843F4804393600020EBE7CA68496864
:105788000068FFF708FE60212068FFF718FE002078
:10579800E0E7CA6849680068FFF7EAFD4021206829
:1057A800FFF70DFE0020D5E70020D3E70120D1E761
:1057B8000220704790F83C20012A3DD010B40346DF
:1057C800012280F83C20022280F83D2002685068BF
:1057D800946820F0700C086840EA0C0050601A6861
:1057E800164882421AD0B2F1804F17D0A0F57C40FB
:1057F800824213D000F5806082420FD000F58060AD
:1058080082420BD000F57840824207D000F57050F4
:10581800824203D0A0F59430824204D124F080045F
:10582800496821439160012283F83D20002083F8D4
:105838003C005DF8044B70470220704700000140AF
:1058480000B585B000230093019302930393144895
:10585800144A02604FF48032426083600361037629
:1058680080F82030C362104A8262C3600122C2619C
:1058780080F83030426100F0E7F858B9012300930E
:105888000193002302936946054800F009F920B9FD
:1058980005B000BDFAF72AFEF0E7FAF727FEF7E7AA
:1058A80088090020002001400100000F00B589B0E0
:1058B800002303930493059306930793026803F167
:1058C800804303F590339A4201D009B000BD00210E
:1058D800019103F58C335A6C42F480725A645A6C05
:1058E80002F480720192019A02911A6B42F001024D
:1058F8001A631B6B03F001030293029B02230393B9
:105908000323049303A90248FDF7AAFBDDE700BFC0
:10591800000002404A4B5A6822F440325A605A68E2
:1059280041680A435A600268536823F480735360DD
:1059380002685368016943EA0123536002685368A7
:1059480023F0407353600268536881680B435360C7
:105958000268936823F40063936002689368C168DF
:105968000B439360826A374B9A4257D00268936818
:1059780023F07063936002689368816A0B439360B5
:105988000268936823F04053936002689368C16A81
:105998000B4393600268936823F0020393600268E4
:1059A8009368017E43EA4103936090F82030002B0E
:1059B8003FD00268536843F4006353600268536839
:1059C80023F46043536001684B68426A013A43EA32
:1059D80042334B600268D36A23F47003D3620168D0
:1059E800CB6AC269013A43EA0253CB620268936800
:1059F80023F4007393600268936890F8301043EAC8
:105A0800412393600268936823F48063936002687B
:105A18009368416943EA81239360704702689368F9
:105A280023F0706393600268936823F04053936097
:105A3800B0E70268536823F400635360CAE700BF05
:105A4800002301400100000F38B310B50446036C71
:105A580043B1236C13F0100F0BD00120002384F8FE
:105A68003C3010BDFFF722FF0023636484F83C300C
:105A7800EFE7236C23F4885323F0020343F0020377
:105A880023642046FFF746FF00206064236C23F060
:105A9800030343F001032364E0E70120704700009B
:105AA80030B482B00022019290F83C20012A00F024
:105AB800B6800346012280F83C200A68092A40D9AA
:105AC8000468E06892B202EB42021E3A4FF0070CFB
